{
  "contractName": "BasicToken",
  "abi": [
    {
      "constant": true,
      "inputs": [],
      "name": "totalSupply_",
      "outputs": [
        {
          "name": "",
          "type": "uint256"
        }
      ],
      "payable": false,
      "stateMutability": "view",
      "type": "function"
    },
    {
      "anonymous": false,
      "inputs": [
        {
          "indexed": true,
          "name": "from",
          "type": "address"
        },
        {
          "indexed": true,
          "name": "to",
          "type": "address"
        },
        {
          "indexed": false,
          "name": "value",
          "type": "uint256"
        }
      ],
      "name": "Transfer",
      "type": "event"
    },
    {
      "constant": true,
      "inputs": [],
      "name": "totalSupply",
      "outputs": [
        {
          "name": "",
          "type": "uint256"
        }
      ],
      "payable": false,
      "stateMutability": "view",
      "type": "function"
    },
    {
      "constant": false,
      "inputs": [
        {
          "name": "_to",
          "type": "address"
        },
        {
          "name": "_value",
          "type": "uint256"
        }
      ],
      "name": "transfer",
      "outputs": [
        {
          "name": "",
          "type": "bool"
        }
      ],
      "payable": false,
      "stateMutability": "nonpayable",
      "type": "function"
    },
    {
      "constant": true,
      "inputs": [
        {
          "name": "_owner",
          "type": "address"
        }
      ],
      "name": "balanceOf",
      "outputs": [
        {
          "name": "balance",
          "type": "uint256"
        }
      ],
      "payable": false,
      "stateMutability": "view",
      "type": "function"
    }
  ],
  "bytecode": "0x608060405234801561001057600080fd5b50610453806100206000396000f300608060405260043610610062576000357c0100000000000000000000000000000000000000000000000000000000900463ffffffff16806318160ddd14610067578063324536eb1461009257806370a08231146100bd578063a9059cbb14610114575b600080fd5b34801561007357600080fd5b5061007c610179565b6040518082815260200191505060405180910390f35b34801561009e57600080fd5b506100a7610183565b6040518082815260200191505060405180910390f35b3480156100c957600080fd5b506100fe600480360381019080803573ffffffffffffffffffffffffffffffffffffffff169060200190929190505050610189565b6040518082815260200191505060405180910390f35b34801561012057600080fd5b5061015f600480360381019080803573ffffffffffffffffffffffffffffffffffffffff169060200190929190803590602001909291905050506101d1565b604051808215151515815260200191505060405180910390f35b6000600154905090565b60015481565b60008060008373ffffffffffffffffffffffffffffffffffffffff1673ffffffffffffffffffffffffffffffffffffffff168152602001908152602001600020549050919050565b60008073ffffffffffffffffffffffffffffffffffffffff168373ffffffffffffffffffffffffffffffffffffffff161415151561020e57600080fd5b6000803373ffffffffffffffffffffffffffffffffffffffff1673ffffffffffffffffffffffffffffffffffffffff16815260200190815260200160002054821115151561025b57600080fd5b6102ac826000803373ffffffffffffffffffffffffffffffffffffffff1673ffffffffffffffffffffffffffffffffffffffff168152602001908152602001600020546103f090919063ffffffff16565b6000803373ffffffffffffffffffffffffffffffffffffffff1673ffffffffffffffffffffffffffffffffffffffff1681526020019081526020016000208190555061033f826000808673ffffffffffffffffffffffffffffffffffffffff1673ffffffffffffffffffffffffffffffffffffffff1681526020019081526020016000205461040990919063ffffffff16565b6000808573ffffffffffffffffffffffffffffffffffffffff1673ffffffffffffffffffffffffffffffffffffffff168152602001908152602001600020819055508273ffffffffffffffffffffffffffffffffffffffff163373ffffffffffffffffffffffffffffffffffffffff167fddf252ad1be2c89b69c2b068fc378daa952ba7f163c4a11628f55a4df523b3ef846040518082815260200191505060405180910390a36001905092915050565b60008282111515156103fe57fe5b818303905092915050565b600080828401905083811015151561041d57fe5b80915050929150505600a165627a7a72305820ebc3feff2977bece5a5c95005864b1cdc4bb4d2c3b041fd6af38842feaa0bc4b0029",
  "source": "pragma solidity ^0.4.24;\n\nimport \"./ERC20Basic.sol\";\nimport \"./Ownable.sol\";\nimport \"./SafeMath.sol\";\n/**\n * @title Basic token\n * @dev Basic version of StandardToken, with no allowances.\n */\ncontract BasicToken is ERC20Basic {\n  using SafeMath for uint256;\n\n  mapping(address => uint256) balances;\n\n  uint256 public totalSupply_;\n\n  /**\n  * @dev total number of tokens in existence\n  */\n  function totalSupply() public view returns (uint256) {\n    return totalSupply_;\n  }\n\n  /**\n  * @dev transfer token for a specified address\n  * @param _to The address to transfer to.\n  * @param _value The amount to be transferred.\n  */\n  function transfer(address _to, uint256 _value) public returns (bool) {\n    require(_to != address(0));\n    require(_value <= balances[msg.sender]);\n\n    // SafeMath.sub will throw if there is not enough balance.\n    balances[msg.sender] = balances[msg.sender].sub(_value);\n    balances[_to] = balances[_to].add(_value);\n    emit Transfer(msg.sender, _to, _value);\n    return true;\n  }\n\n  /**\n  * @dev Gets the balance of the specified address.\n  * @param _owner The address to query the the balance of.\n  * @return An uint256 representing the amount owned by the passed address.\n  */\n  function balanceOf(address _owner) public view returns (uint256 balance) {\n    return balances[_owner];\n  }\n\n}\n",
  "sourcePath": "/home/abhi_21094/Projects/QuillSto/contracts/BasicToken.sol",
  "compiler": {
    "name": "solc",
    "version": "0.4.24+commit.e67f0147.Emscripten.clang"
  },
  "schemaVersion": "2.0.1",
  "updatedAt": "2018-12-10T12:03:12.066Z"
}