{
  "contractName": "RegulatorService",
  "abi": [
    {
      "constant": true,
      "inputs": [],
      "name": "owner",
      "outputs": [
        {
          "name": "",
          "type": "address"
        }
      ],
      "payable": false,
      "stateMutability": "view",
      "type": "function"
    },
    {
      "constant": false,
      "inputs": [
        {
          "name": "newOwner",
          "type": "address"
        }
      ],
      "name": "transferOwnership",
      "outputs": [],
      "payable": false,
      "stateMutability": "nonpayable",
      "type": "function"
    },
    {
      "inputs": [],
      "payable": false,
      "stateMutability": "nonpayable",
      "type": "constructor"
    },
    {
      "anonymous": false,
      "inputs": [
        {
          "indexed": true,
          "name": "previousOwner",
          "type": "address"
        },
        {
          "indexed": true,
          "name": "newOwner",
          "type": "address"
        }
      ],
      "name": "OwnershipTransferred",
      "type": "event"
    },
    {
      "constant": true,
      "inputs": [
        {
          "name": "_token",
          "type": "address"
        },
        {
          "name": "_spender",
          "type": "address"
        },
        {
          "name": "_from",
          "type": "address"
        },
        {
          "name": "_to",
          "type": "address"
        },
        {
          "name": "_amount",
          "type": "uint256"
        }
      ],
      "name": "verify",
      "outputs": [
        {
          "name": "",
          "type": "uint256"
        }
      ],
      "payable": false,
      "stateMutability": "view",
      "type": "function"
    },
    {
      "constant": true,
      "inputs": [
        {
          "name": "restrictionCode",
          "type": "uint256"
        }
      ],
      "name": "restrictionMessage",
      "outputs": [
        {
          "name": "",
          "type": "string"
        }
      ],
      "payable": false,
      "stateMutability": "view",
      "type": "function"
    },
    {
      "constant": false,
      "inputs": [
        {
          "name": "_KycContractAddress",
          "type": "address"
        }
      ],
      "name": "KycContract",
      "outputs": [],
      "payable": false,
      "stateMutability": "nonpayable",
      "type": "function"
    }
  ],
  "bytecode": "0x608060405234801561001057600080fd5b5033806000806101000a81548173ffffffffffffffffffffffffffffffffffffffff021916908373ffffffffffffffffffffffffffffffffffffffff16021790555050610d9e806100626000396000f30060806040526004361061006d576000357c0100000000000000000000000000000000000000000000000000000000900463ffffffff168063442051a41461007257806345289e9b146100b55780638da5cb5b14610176578063beb6ad6a146101cd578063f2fde38b14610273575b600080fd5b34801561007e57600080fd5b506100b3600480360381019080803573ffffffffffffffffffffffffffffffffffffffff1690602001909291905050506102b6565b005b3480156100c157600080fd5b50610160600480360381019080803573ffffffffffffffffffffffffffffffffffffffff169060200190929190803573ffffffffffffffffffffffffffffffffffffffff169060200190929190803573ffffffffffffffffffffffffffffffffffffffff169060200190929190803573ffffffffffffffffffffffffffffffffffffffff16906020019092919080359060200190929190505050610355565b6040518082815260200191505060405180910390f35b34801561018257600080fd5b5061018b610baa565b604051808273ffffffffffffffffffffffffffffffffffffffff1673ffffffffffffffffffffffffffffffffffffffff16815260200191505060405180910390f35b3480156101d957600080fd5b506101f860048036038101908080359060200190929190505050610bcf565b6040518080602001828103825283818151815260200191508051906020019080838360005b8381101561023857808201518184015260208101905061021d565b50505050905090810190601f1680156102655780820380516001836020036101000a031916815260200191505b509250505060405180910390f35b34801561027f57600080fd5b506102b4600480360381019080803573ffffffffffffffffffffffffffffffffffffffff169060200190929190505050610c1d565b005b6000809054906101000a900473ffffffffffffffffffffffffffffffffffffffff1673ffffffffffffffffffffffffffffffffffffffff163373ffffffffffffffffffffffffffffffffffffffff1614151561031157600080fd5b80600160006101000a81548173ffffffffffffffffffffffffffffffffffffffff021916908373ffffffffffffffffffffffffffffffffffffffff16021790555050565b6000600a600160009054906101000a900473ffffffffffffffffffffffffffffffffffffffff1673ffffffffffffffffffffffffffffffffffffffff16638367d1ff856040518263ffffffff167c0100000000000000000000000000000000000000000000000000000000028152600401808273ffffffffffffffffffffffffffffffffffffffff1673ffffffffffffffffffffffffffffffffffffffff168152602001915050602060405180830381600087803b15801561041657600080fd5b505af115801561042a573d6000803e3d6000fd5b505050506040513d602081101561044057600080fd5b81019080805190602001909291905050501415610461576104d29050610ba1565b6008600160009054906101000a900473ffffffffffffffffffffffffffffffffffffffff1673ffffffffffffffffffffffffffffffffffffffff16638367d1ff856040518263ffffffff167c0100000000000000000000000000000000000000000000000000000000028152600401808273ffffffffffffffffffffffffffffffffffffffff1673ffffffffffffffffffffffffffffffffffffffff168152602001915050602060405180830381600087803b15801561052057600080fd5b505af1158015610534573d6000803e3d6000fd5b505050506040513d602081101561054a57600080fd5b8101908080519060200190929190505050141561056a5760869050610ba1565b6007600160009054906101000a900473ffffffffffffffffffffffffffffffffffffffff1673ffffffffffffffffffffffffffffffffffffffff16638367d1ff856040518263ffffffff167c0100000000000000000000000000000000000000000000000000000000028152600401808273ffffffffffffffffffffffffffffffffffffffff1673ffffffffffffffffffffffffffffffffffffffff168152602001915050602060405180830381600087803b15801561062957600080fd5b505af115801561063d573d6000803e3d6000fd5b505050506040513d602081101561065357600080fd5b8101908080519060200190929190505050141561067357607c9050610ba1565b6006600160009054906101000a900473ffffffffffffffffffffffffffffffffffffffff1673ffffffffffffffffffffffffffffffffffffffff16638367d1ff856040518263ffffffff167c0100000000000000000000000000000000000000000000000000000000028152600401808273ffffffffffffffffffffffffffffffffffffffff1673ffffffffffffffffffffffffffffffffffffffff168152602001915050602060405180830381600087803b15801561073257600080fd5b505af1158015610746573d6000803e3d6000fd5b505050506040513d602081101561075c57600080fd5b8101908080519060200190929190505050141561077c57607b9050610ba1565b6005600160009054906101000a900473ffffffffffffffffffffffffffffffffffffffff1673ffffffffffffffffffffffffffffffffffffffff16638367d1ff856040518263ffffffff167c0100000000000000000000000000000000000000000000000000000000028152600401808273ffffffffffffffffffffffffffffffffffffffff1673ffffffffffffffffffffffffffffffffffffffff168152602001915050602060405180830381600087803b15801561083b57600080fd5b505af115801561084f573d6000803e3d6000fd5b505050506040513d602081101561086557600080fd5b8101908080519060200190929190505050141561088557600e9050610ba1565b6004600160009054906101000a900473ffffffffffffffffffffffffffffffffffffffff1673ffffffffffffffffffffffffffffffffffffffff16638367d1ff856040518263ffffffff167c0100000000000000000000000000000000000000000000000000000000028152600401808273ffffffffffffffffffffffffffffffffffffffff1673ffffffffffffffffffffffffffffffffffffffff168152602001915050602060405180830381600087803b15801561094457600080fd5b505af1158015610958573d6000803e3d6000fd5b505050506040513d602081101561096e57600080fd5b8101908080519060200190929190505050141561098e57600d9050610ba1565b6003600160009054906101000a900473ffffffffffffffffffffffffffffffffffffffff1673ffffffffffffffffffffffffffffffffffffffff16638367d1ff856040518263ffffffff167c0100000000000000000000000000000000000000000000000000000000028152600401808273ffffffffffffffffffffffffffffffffffffffff1673ffffffffffffffffffffffffffffffffffffffff168152602001915050602060405180830381600087803b158015610a4d57600080fd5b505af1158015610a61573d6000803e3d6000fd5b505050506040513d6020811015610a7757600080fd5b81019080805190602001909291905050501415610a9757600c9050610ba1565b6000600160009054906101000a900473ffffffffffffffffffffffffffffffffffffffff1673ffffffffffffffffffffffffffffffffffffffff16638367d1ff856040518263ffffffff167c0100000000000000000000000000000000000000000000000000000000028152600401808273ffffffffffffffffffffffffffffffffffffffff1673ffffffffffffffffffffffffffffffffffffffff168152602001915050602060405180830381600087803b158015610b5657600080fd5b505af1158015610b6a573d6000803e3d6000fd5b505050506040513d6020811015610b8057600080fd5b81019080805190602001909291905050501415610ba05760009050610ba1565b5b95945050505050565b6000809054906101000a900473ffffffffffffffffffffffffffffffffffffffff1681565b6060600a821415610c17576040805190810160405280601781526020017f416c6c204b59432070726f6365737320697320646f6e650000000000000000008152509050610c18565b5b919050565b6000809054906101000a900473ffffffffffffffffffffffffffffffffffffffff1673ffffffffffffffffffffffffffffffffffffffff163373ffffffffffffffffffffffffffffffffffffffff16141515610c7857600080fd5b600073ffffffffffffffffffffffffffffffffffffffff168173ffffffffffffffffffffffffffffffffffffffff1614151515610cb457600080fd5b8073ffffffffffffffffffffffffffffffffffffffff166000809054906101000a900473ffffffffffffffffffffffffffffffffffffffff1673ffffffffffffffffffffffffffffffffffffffff167f8be0079c531659141344cd1fd0a4f28419497f9722a3daafe3b4186f6b6457e060405160405180910390a3806000806101000a81548173ffffffffffffffffffffffffffffffffffffffff021916908373ffffffffffffffffffffffffffffffffffffffff160217905550505600a165627a7a72305820507532ced537385e2bb961aeff481dd6b572179aa4141dd2c3bd101b0383dbc40029",
  "source": "pragma solidity ^0.4.24;\nimport './Ownable.sol';\n\n\ncontract ValidateBeneficiary{\n    \n    function checkKycStatus(address _beneficiary) public view returns(uint256);    \n}\n\ncontract RegulatorService is Ownable {\n\n\n   address KycContractAddress;\n  constructor() public Ownable(msg.sender){}\n  /**\n   * @notice This method is called by `AtomicToken` during `transfer()` and `transferFrom()`\n   *         The implementation should contain all restrictions logic on tranfer of tokens\n   * @param  _token The address of the token to be transfered\n   * @param  _spender The address of the spender of the token\n   * @param  _from The address of the sender account\n   * @param  _to The address of the receiver account\n   * @param  _amount The quantity of the token to trade\n   * @return Bytecode that signifies approval or reason for restriction; hex\"01\" means successful transfer\n   *         All other values are left to the implementer to assign meanings\n   */\n    \n    function verify(address _token, address _spender, address _from, address _to, uint256 _amount) public view returns (uint256) \n    {\n        if(ValidateBeneficiary(KycContractAddress).checkKycStatus(_to)==10){return 1234;}\n        else if(ValidateBeneficiary(KycContractAddress).checkKycStatus(_to)==8){return 134;}\n        else if(ValidateBeneficiary(KycContractAddress).checkKycStatus(_to)==7){return 124;}\n        else if(ValidateBeneficiary(KycContractAddress).checkKycStatus(_to)==6){return 123;}\n        else if(ValidateBeneficiary(KycContractAddress).checkKycStatus(_to)==5){return 14;}\n        else if(ValidateBeneficiary(KycContractAddress).checkKycStatus(_to)==4){return 13;}\n        else if(ValidateBeneficiary(KycContractAddress).checkKycStatus(_to)==3){return 12;}\n        else if(ValidateBeneficiary(KycContractAddress).checkKycStatus(_to)==0){return 0;}\n        \n    }\n\n\n   /**\n    * @notice This method returns a human-readable message for a given bytecode\n    * @dev Implementer must assign custom codes for each restriction reason\n    * @param restrictionCode uint256 identifier for looking up message\n    * @return Text with reason for restriction \n    */\n    \n    function restrictionMessage(uint256 restrictionCode) public view returns (string)\n    {\n        if(restrictionCode == 10) {\n            return \"All KYC process is done\";\n        }\n    }\n    \n    function KycContract(address _KycContractAddress) public onlyOwner\n    {\n        KycContractAddress = _KycContractAddress;\n    }\n\n    \n    \n\n}",
  "sourcePath": "/home/abhi_21094/Projects/QuillSto/contracts/RegulatorService.sol",
  "compiler": {
    "name": "solc",
    "version": "0.4.24+commit.e67f0147.Emscripten.clang"
  },
  "schemaVersion": "2.0.1",
  "updatedAt": "2018-12-10T12:03:12.077Z"
}