{
  "contractName": "ValidateBeneficiary",
  "abi": [
    {
      "constant": true,
      "inputs": [],
      "name": "owner",
      "outputs": [
        {
          "name": "",
          "type": "address"
        }
      ],
      "payable": false,
      "stateMutability": "view",
      "type": "function"
    },
    {
      "constant": false,
      "inputs": [
        {
          "name": "newOwner",
          "type": "address"
        }
      ],
      "name": "transferOwnership",
      "outputs": [],
      "payable": false,
      "stateMutability": "nonpayable",
      "type": "function"
    },
    {
      "anonymous": false,
      "inputs": [
        {
          "indexed": true,
          "name": "previousOwner",
          "type": "address"
        },
        {
          "indexed": true,
          "name": "newOwner",
          "type": "address"
        }
      ],
      "name": "OwnershipTransferred",
      "type": "event"
    },
    {
      "constant": false,
      "inputs": [
        {
          "name": "_CrowdsaleContract",
          "type": "address"
        }
      ],
      "name": "CrowdsaleAddress",
      "outputs": [],
      "payable": false,
      "stateMutability": "nonpayable",
      "type": "function"
    },
    {
      "constant": false,
      "inputs": [
        {
          "name": "addrs",
          "type": "address[]"
        }
      ],
      "name": "validatedEmailIds",
      "outputs": [
        {
          "name": "success",
          "type": "bool"
        }
      ],
      "payable": false,
      "stateMutability": "nonpayable",
      "type": "function"
    },
    {
      "constant": false,
      "inputs": [
        {
          "name": "addrs",
          "type": "address[]"
        }
      ],
      "name": "validatedPhoneNo",
      "outputs": [
        {
          "name": "success",
          "type": "bool"
        }
      ],
      "payable": false,
      "stateMutability": "nonpayable",
      "type": "function"
    },
    {
      "constant": false,
      "inputs": [
        {
          "name": "addrs",
          "type": "address[]"
        }
      ],
      "name": "validatedSocialAccount",
      "outputs": [
        {
          "name": "success",
          "type": "bool"
        }
      ],
      "payable": false,
      "stateMutability": "nonpayable",
      "type": "function"
    },
    {
      "constant": true,
      "inputs": [
        {
          "name": "_beneficiary",
          "type": "address"
        }
      ],
      "name": "isPhoneNoValid",
      "outputs": [
        {
          "name": "",
          "type": "uint256"
        }
      ],
      "payable": false,
      "stateMutability": "view",
      "type": "function"
    },
    {
      "constant": true,
      "inputs": [
        {
          "name": "_beneficiary",
          "type": "address"
        }
      ],
      "name": "isEmailValid",
      "outputs": [
        {
          "name": "",
          "type": "uint256"
        }
      ],
      "payable": false,
      "stateMutability": "view",
      "type": "function"
    },
    {
      "constant": true,
      "inputs": [
        {
          "name": "_beneficiary",
          "type": "address"
        }
      ],
      "name": "isSocialAccountValid",
      "outputs": [
        {
          "name": "",
          "type": "uint256"
        }
      ],
      "payable": false,
      "stateMutability": "view",
      "type": "function"
    },
    {
      "constant": true,
      "inputs": [
        {
          "name": "_beneficiary",
          "type": "address"
        }
      ],
      "name": "isKycValid",
      "outputs": [
        {
          "name": "",
          "type": "uint256"
        }
      ],
      "payable": false,
      "stateMutability": "view",
      "type": "function"
    },
    {
      "constant": true,
      "inputs": [
        {
          "name": "_beneficiary",
          "type": "address"
        }
      ],
      "name": "checkKycStatus",
      "outputs": [
        {
          "name": "",
          "type": "uint256"
        }
      ],
      "payable": false,
      "stateMutability": "view",
      "type": "function"
    }
  ],
  "bytecode": "0x608060405233806000806101000a81548173ffffffffffffffffffffffffffffffffffffffff021916908373ffffffffffffffffffffffffffffffffffffffff16021790555050610dd0806100556000396000f3006080604052600436106100ae576000357c0100000000000000000000000000000000000000000000000000000000900463ffffffff1680622e52d1146100b35780630924f72c146101315780630fd58d75146101885780633ac1951e146102065780636b6bf3f41461025d57806374a8548f146102b45780638367d1ff146103325780638da5cb5b14610389578063b79322a4146103e0578063e457074614610423578063f2fde38b1461047a575b600080fd5b3480156100bf57600080fd5b50610117600480360381019080803590602001908201803590602001908080602002602001604051908101604052809392919081815260200183836020028082843782019150505050505091929192905050506104bd565b604051808215151515815260200191505060405180910390f35b34801561013d57600080fd5b50610172600480360381019080803573ffffffffffffffffffffffffffffffffffffffff1690602001909291905050506105a2565b6040518082815260200191505060405180910390f35b34801561019457600080fd5b506101ec600480360381019080803590602001908201803590602001908080602002602001604051908101604052809392919081815260200183836020028082843782019150505050505091929192905050506105c8565b604051808215151515815260200191505060405180910390f35b34801561021257600080fd5b50610247600480360381019080803573ffffffffffffffffffffffffffffffffffffffff1690602001909291905050506106ac565b6040518082815260200191505060405180910390f35b34801561026957600080fd5b5061029e600480360381019080803573ffffffffffffffffffffffffffffffffffffffff1690602001909291905050506106f5565b6040518082815260200191505060405180910390f35b3480156102c057600080fd5b506103186004803603810190808035906020019082018035906020019080806020026020016040519081016040528093929190818152602001838360200280828437820191505050505050919291929050505061073e565b604051808215151515815260200191505060405180910390f35b34801561033e57600080fd5b50610373600480360381019080803573ffffffffffffffffffffffffffffffffffffffff169060200190929190505050610823565b6040518082815260200191505060405180910390f35b34801561039557600080fd5b5061039e6109ec565b604051808273ffffffffffffffffffffffffffffffffffffffff1673ffffffffffffffffffffffffffffffffffffffff16815260200191505060405180910390f35b3480156103ec57600080fd5b50610421600480360381019080803573ffffffffffffffffffffffffffffffffffffffff169060200190929190505050610a11565b005b34801561042f57600080fd5b50610464600480360381019080803573ffffffffffffffffffffffffffffffffffffffff169060200190929190505050610a55565b6040518082815260200191505060405180910390f35b34801561048657600080fd5b506104bb600480360381019080803573ffffffffffffffffffffffffffffffffffffffff169060200190929190505050610a9e565b005b60008060008060009054906101000a900473ffffffffffffffffffffffffffffffffffffffff1673ffffffffffffffffffffffffffffffffffffffff163373ffffffffffffffffffffffffffffffffffffffff1614151561051d57600080fd5b83519150600090505b8181101561059757600360046000868481518110151561054257fe5b9060200190602002015173ffffffffffffffffffffffffffffffffffffffff1673ffffffffffffffffffffffffffffffffffffffff168152602001908152602001600020819055508080600101915050610526565b600192505050919050565b6000600115156105b183610bf3565b151514156105c257600190506105c3565b5b919050565b60008060008060009054906101000a900473ffffffffffffffffffffffffffffffffffffffff1673ffffffffffffffffffffffffffffffffffffffff163373ffffffffffffffffffffffffffffffffffffffff1614151561062857600080fd5b83519150600090505b818110156106a1576002806000868481518110151561064c57fe5b9060200190602002015173ffffffffffffffffffffffffffffffffffffffff1673ffffffffffffffffffffffffffffffffffffffff168152602001908152602001600020819055508080600101915050610631565b600192505050919050565b6000600260008373ffffffffffffffffffffffffffffffffffffffff1673ffffffffffffffffffffffffffffffffffffffff168152602001908152602001600020549050919050565b6000600360008373ffffffffffffffffffffffffffffffffffffffff1673ffffffffffffffffffffffffffffffffffffffff168152602001908152602001600020549050919050565b60008060008060009054906101000a900473ffffffffffffffffffffffffffffffffffffffff1673ffffffffffffffffffffffffffffffffffffffff163373ffffffffffffffffffffffffffffffffffffffff1614151561079e57600080fd5b83519150600090505b818110156108185760046003600086848151811015156107c357fe5b9060200190602002015173ffffffffffffffffffffffffffffffffffffffff1673ffffffffffffffffffffffffffffffffffffffff1681526020019081526020016000208190555080806001019150506107a7565b600192505050919050565b6000806001610831846105a2565b14801561084657506002610844846106ac565b145b801561085a5750600361085884610a55565b145b801561086e5750600461086c846106f5565b145b1561087f57600a90508091506109e6565b600161088a846105a2565b14801561089f5750600261089d846106ac565b145b80156108b3575060036108b184610a55565b145b156108c457600690508091506109e6565b60016108cf846105a2565b1480156108e4575060026108e2846106ac565b145b80156108f8575060046108f6846106f5565b145b1561090957600790508091506109e6565b6001610914846105a2565b1480156109295750600361092784610a55565b145b801561093d5750600461093b846106f5565b145b1561094e57600890508091506109e6565b6001610959846105a2565b14801561096e5750600261096c846106ac565b145b1561097f57600390508091506109e6565b600161098a846105a2565b14801561099f5750600361099d84610a55565b145b156109b057600490508091506109e6565b60016109bb846105a2565b1480156109d0575060046109ce846106f5565b145b156109e157600590508091506109e6565b600091505b50919050565b6000809054906101000a900473ffffffffffffffffffffffffffffffffffffffff1681565b80600160006101000a81548173ffffffffffffffffffffffffffffffffffffffff021916908373ffffffffffffffffffffffffffffffffffffffff16021790555050565b6000600460008373ffffffffffffffffffffffffffffffffffffffff1673ffffffffffffffffffffffffffffffffffffffff168152602001908152602001600020549050919050565b6000809054906101000a900473ffffffffffffffffffffffffffffffffffffffff1673ffffffffffffffffffffffffffffffffffffffff163373ffffffffffffffffffffffffffffffffffffffff16141515610af957600080fd5b600073ffffffffffffffffffffffffffffffffffffffff168173ffffffffffffffffffffffffffffffffffffffff1614151515610b3557600080fd5b8073ffffffffffffffffffffffffffffffffffffffff166000809054906101000a900473ffffffffffffffffffffffffffffffffffffffff1673ffffffffffffffffffffffffffffffffffffffff167f8be0079c531659141344cd1fd0a4f28419497f9722a3daafe3b4186f6b6457e060405160405180910390a3806000806101000a81548173ffffffffffffffffffffffffffffffffffffffff021916908373ffffffffffffffffffffffffffffffffffffffff16021790555050565b600080600160009054906101000a900473ffffffffffffffffffffffffffffffffffffffff1673ffffffffffffffffffffffffffffffffffffffff1614151515610ca5576040517f08c379a000000000000000000000000000000000000000000000000000000000815260040180806020018281038252601a8152602001807f43726f776473616c6520436f6e7472616374206973206e756c6c00000000000081525060200191505060405180910390fd5b600160009054906101000a900473ffffffffffffffffffffffffffffffffffffffff1673ffffffffffffffffffffffffffffffffffffffff1663d06c1ab9836040518263ffffffff167c0100000000000000000000000000000000000000000000000000000000028152600401808273ffffffffffffffffffffffffffffffffffffffff1673ffffffffffffffffffffffffffffffffffffffff168152602001915050602060405180830381600087803b158015610d6257600080fd5b505af1158015610d76573d6000803e3d6000fd5b505050506040513d6020811015610d8c57600080fd5b810190808051906020019092919050505090509190505600a165627a7a723058200c5a9467bc261dc6994e45dc4ed6c085528180b565510e7b4c323f83b82bc81b0029",
  "source": "pragma solidity ^0.4.24;\nimport './Ownable.sol';\n\n//1 kyc through crowdsale contract\n//2-email verified \n//3-social media verified\n//4-phone no verified(//true caller based for testing)\n\ncontract Crowdsale {\n    \n  function islisted(address _beneficiary) public view returns (bool);\n}\n\n\ncontract ValidateBeneficiary is Ownable(msg.sender) {\n\n    \n    address CrowdsaleContract;\n    mapping(address => uint256) verifiedbyEmail;\n    mapping(address => uint256) verifiedbyPhoneNo;\n    mapping(address => uint256) verifiedbySocialAccount;\n    \n    modifier isparticipateListed()\n    {\n         require(checkKYC(msg.sender));\n        _;\n\n    }\n\n    function CrowdsaleAddress(address _CrowdsaleContract) public \n    {\n        CrowdsaleContract = _CrowdsaleContract;\n    }\n    \n    \n    function checkKYC(address _spender) internal view returns(bool) \n    {\n        require(CrowdsaleContract != 0x0,\"Crowdsale Contract is null\");\n        return Crowdsale(CrowdsaleContract).islisted(_spender);\n    }\n    \n    function validatedEmailIds(address[] addrs) public onlyOwner returns (bool success) {\n        \n        uint arrayLength = addrs.length;\n        \n        for (uint x = 0; x < arrayLength; x++) \n        {\n            verifiedbyEmail[addrs[x]] = 2;\n        }\n\n        return true;\n    }\n    \n    function validatedPhoneNo(address[] addrs) public onlyOwner returns (bool success) {\n        \n        uint arrayLength = addrs.length;\n        \n        for (uint x = 0; x < arrayLength; x++) \n        {\n            verifiedbyPhoneNo[addrs[x]] = 4;\n        }\n\n        return true;\n    }\n    \n    function validatedSocialAccount(address[] addrs) public onlyOwner returns (bool success) {\n        \n        uint arrayLength = addrs.length;\n        \n        for (uint x = 0; x < arrayLength; x++) \n        {\n            verifiedbySocialAccount[addrs[x]] = 3;\n        }\n\n        return true;\n    }\n    \n    function isPhoneNoValid(address _beneficiary) public view returns(uint256){\n    \n        return verifiedbyPhoneNo[_beneficiary];\n    \n        \n    }\n    \n    function isEmailValid(address _beneficiary) public view returns(uint256){\n        \n        return verifiedbyEmail[_beneficiary];\n    \n        \n    }\n\n    function isSocialAccountValid(address _beneficiary) public view returns(uint256){\n        \n        return verifiedbySocialAccount[_beneficiary];\n    \n        \n    }\n\n    function isKycValid(address _beneficiary) public view returns(uint256){\n        \n        if(checkKYC(_beneficiary)==true)\n        {\n            return 1;\n        }\n        \n    }\n    //isKycValid is mandatrory for verification\n    //rest are optional and can be set according to requirement\n    function checkKycStatus(address _beneficiary) public view returns(uint256){\n        uint256 KycValue;\n        \n        if(isKycValid(_beneficiary)==1 && isEmailValid(_beneficiary)==2 && isSocialAccountValid(_beneficiary)==3 && isPhoneNoValid(_beneficiary)==4){return KycValue = 10;}\n        else if(isKycValid(_beneficiary)==1 && isEmailValid(_beneficiary)==2 && isSocialAccountValid(_beneficiary)==3){return KycValue = 6;}        \n        else if(isKycValid(_beneficiary)==1 && isEmailValid(_beneficiary)==2 && isPhoneNoValid(_beneficiary)==4){return KycValue = 7;}\n        else if(isKycValid(_beneficiary)==1 && isSocialAccountValid(_beneficiary)==3 && isPhoneNoValid(_beneficiary)==4){return KycValue = 8;}        \n        else if(isKycValid(_beneficiary)==1 && isEmailValid(_beneficiary)==2 ){return KycValue = 3;}\n        else if(isKycValid(_beneficiary)==1 && isSocialAccountValid(_beneficiary)==3){return KycValue = 4;}\n        else if(isKycValid(_beneficiary)==1 && isPhoneNoValid(_beneficiary)==4){return KycValue = 5;}\n        else { return 0;} \n    }\n\n    \n\n\n\n    \n\n}",
  "sourcePath": "/home/abhi_21094/Projects/QuillSto/contracts/ValidateBeneficiary.sol",
  "compiler": {
    "name": "solc",
    "version": "0.4.24+commit.e67f0147.Emscripten.clang"
  },
  "schemaVersion": "2.0.1",
  "updatedAt": "2018-12-10T12:03:12.079Z"
}