{
  "contractName": "VotingFactoryContract",
  "abi": [
    {
      "constant": true,
      "inputs": [],
      "name": "tokenContract",
      "outputs": [
        {
          "name": "",
          "type": "address"
        }
      ],
      "payable": false,
      "stateMutability": "view",
      "type": "function"
    },
    {
      "constant": true,
      "inputs": [],
      "name": "owner",
      "outputs": [
        {
          "name": "",
          "type": "address"
        }
      ],
      "payable": false,
      "stateMutability": "view",
      "type": "function"
    },
    {
      "constant": true,
      "inputs": [],
      "name": "CrowdsaleContract",
      "outputs": [
        {
          "name": "",
          "type": "address"
        }
      ],
      "payable": false,
      "stateMutability": "view",
      "type": "function"
    },
    {
      "constant": false,
      "inputs": [
        {
          "name": "newOwner",
          "type": "address"
        }
      ],
      "name": "transferOwnership",
      "outputs": [],
      "payable": false,
      "stateMutability": "nonpayable",
      "type": "function"
    },
    {
      "inputs": [],
      "payable": false,
      "stateMutability": "nonpayable",
      "type": "constructor"
    },
    {
      "anonymous": false,
      "inputs": [
        {
          "indexed": true,
          "name": "previousOwner",
          "type": "address"
        },
        {
          "indexed": true,
          "name": "newOwner",
          "type": "address"
        }
      ],
      "name": "OwnershipTransferred",
      "type": "event"
    },
    {
      "constant": false,
      "inputs": [
        {
          "name": "_tokenAddress",
          "type": "address"
        }
      ],
      "name": "setTokenAddress",
      "outputs": [],
      "payable": false,
      "stateMutability": "nonpayable",
      "type": "function"
    },
    {
      "constant": false,
      "inputs": [
        {
          "name": "_CrowdsaleContract",
          "type": "address"
        }
      ],
      "name": "setCrowdsaleAddress",
      "outputs": [],
      "payable": false,
      "stateMutability": "nonpayable",
      "type": "function"
    },
    {
      "constant": false,
      "inputs": [
        {
          "name": "_VotingContractId",
          "type": "uint256"
        },
        {
          "name": "_agendaOfVoting",
          "type": "string"
        }
      ],
      "name": "createVotingContract",
      "outputs": [
        {
          "name": "",
          "type": "address"
        }
      ],
      "payable": false,
      "stateMutability": "nonpayable",
      "type": "function"
    },
    {
      "constant": true,
      "inputs": [
        {
          "name": "_VotingContractId",
          "type": "uint256"
        }
      ],
      "name": "VotingContractAddressById",
      "outputs": [
        {
          "name": "",
          "type": "address"
        }
      ],
      "payable": false,
      "stateMutability": "view",
      "type": "function"
    },
    {
      "constant": true,
      "inputs": [
        {
          "name": "_VotingContractId",
          "type": "uint256"
        }
      ],
      "name": "VotingAgendaById",
      "outputs": [
        {
          "name": "",
          "type": "string"
        }
      ],
      "payable": false,
      "stateMutability": "view",
      "type": "function"
    }
  ],
  "bytecode": "0x608060405234801561001057600080fd5b5033806000806101000a81548173ffffffffffffffffffffffffffffffffffffffff021916908373ffffffffffffffffffffffffffffffffffffffff160217905550506120ee806100626000396000f300608060405260043610610099576000357c0100000000000000000000000000000000000000000000000000000000900463ffffffff168063056019e91461009e5780631f35bc401461010b57806326a4e8d21461014e5780635327df081461019157806355a373d6146102375780638da5cb5b1461028e578063d391ce7a146102e5578063eeb8d10f1461033c578063f2fde38b146103ef575b600080fd5b3480156100aa57600080fd5b506100c960048036038101908080359060200190929190505050610432565b604051808273ffffffffffffffffffffffffffffffffffffffff1673ffffffffffffffffffffffffffffffffffffffff16815260200191505060405180910390f35b34801561011757600080fd5b5061014c600480360381019080803573ffffffffffffffffffffffffffffffffffffffff16906020019092919050505061046f565b005b34801561015a57600080fd5b5061018f600480360381019080803573ffffffffffffffffffffffffffffffffffffffff16906020019092919050505061050e565b005b34801561019d57600080fd5b506101bc600480360381019080803590602001909291905050506105ad565b6040518080602001828103825283818151815260200191508051906020019080838360005b838110156101fc5780820151818401526020810190506101e1565b50505050905090810190601f1680156102295780820380516001836020036101000a031916815260200191505b509250505060405180910390f35b34801561024357600080fd5b5061024c610662565b604051808273ffffffffffffffffffffffffffffffffffffffff1673ffffffffffffffffffffffffffffffffffffffff16815260200191505060405180910390f35b34801561029a57600080fd5b506102a3610688565b604051808273ffffffffffffffffffffffffffffffffffffffff1673ffffffffffffffffffffffffffffffffffffffff16815260200191505060405180910390f35b3480156102f157600080fd5b506102fa6106ad565b604051808273ffffffffffffffffffffffffffffffffffffffff1673ffffffffffffffffffffffffffffffffffffffff16815260200191505060405180910390f35b34801561034857600080fd5b506103ad60048036038101908080359060200190929190803590602001908201803590602001908080601f01602080910402602001604051908101604052809392919081815260200183838082843782019150505050505091929192905050506106d3565b604051808273ffffffffffffffffffffffffffffffffffffffff1673ffffffffffffffffffffffffffffffffffffffff16815260200191505060405180910390f35b3480156103fb57600080fd5b50610430600480360381019080803573ffffffffffffffffffffffffffffffffffffffff169060200190929190505050610993565b005b60006001600083815260200190815260200160002060009054906101000a900473ffffffffffffffffffffffffffffffffffffffff169050919050565b6000809054906101000a900473ffffffffffffffffffffffffffffffffffffffff1673ffffffffffffffffffffffffffffffffffffffff163373ffffffffffffffffffffffffffffffffffffffff161415156104ca57600080fd5b80600560006101000a81548173ffffffffffffffffffffffffffffffffffffffff021916908373ffffffffffffffffffffffffffffffffffffffff16021790555050565b6000809054906101000a900473ffffffffffffffffffffffffffffffffffffffff1673ffffffffffffffffffffffffffffffffffffffff163373ffffffffffffffffffffffffffffffffffffffff1614151561056957600080fd5b80600460006101000a81548173ffffffffffffffffffffffffffffffffffffffff021916908373ffffffffffffffffffffffffffffffffffffffff16021790555050565b6060600260008381526020019081526020016000208054600181600116156101000203166002900480601f0160208091040260200160405190810160405280929190818152602001828054600181600116156101000203166002900480156106565780601f1061062b57610100808354040283529160200191610656565b820191906000526020600020905b81548152906001019060200180831161063957829003601f168201915b50505050509050919050565b600460009054906101000a900473ffffffffffffffffffffffffffffffffffffffff1681565b6000809054906101000a900473ffffffffffffffffffffffffffffffffffffffff1681565b600560009054906101000a900473ffffffffffffffffffffffffffffffffffffffff1681565b6000806000809054906101000a900473ffffffffffffffffffffffffffffffffffffffff1673ffffffffffffffffffffffffffffffffffffffff163373ffffffffffffffffffffffffffffffffffffffff1614151561073157600080fd5b600015156003600086815260200190815260200160002060009054906101000a900460ff16151514151561076457600080fd5b838333600460009054906101000a900473ffffffffffffffffffffffffffffffffffffffff16600560009054906101000a900473ffffffffffffffffffffffffffffffffffffffff166107b5610ae8565b80868152602001806020018573ffffffffffffffffffffffffffffffffffffffff1673ffffffffffffffffffffffffffffffffffffffff1681526020018473ffffffffffffffffffffffffffffffffffffffff1673ffffffffffffffffffffffffffffffffffffffff1681526020018373ffffffffffffffffffffffffffffffffffffffff1673ffffffffffffffffffffffffffffffffffffffff168152602001828103825286818151815260200191508051906020019080838360005b8381101561088e578082015181840152602081019050610873565b50505050905090810190601f1680156108bb5780820380516001836020036101000a031916815260200191505b509650505050505050604051809103906000f0801580156108e0573d6000803e3d6000fd5b509050806001600086815260200190815260200160002060006101000a81548173ffffffffffffffffffffffffffffffffffffffff021916908373ffffffffffffffffffffffffffffffffffffffff1602179055508260026000868152602001908152602001600020908051906020019061095c929190610af8565b5060016003600086815260200190815260200160002060006101000a81548160ff0219169083151502179055508091505092915050565b6000809054906101000a900473ffffffffffffffffffffffffffffffffffffffff1673ffffffffffffffffffffffffffffffffffffffff163373ffffffffffffffffffffffffffffffffffffffff161415156109ee57600080fd5b600073ffffffffffffffffffffffffffffffffffffffff168173ffffffffffffffffffffffffffffffffffffffff1614151515610a2a57600080fd5b8073ffffffffffffffffffffffffffffffffffffffff166000809054906101000a900473ffffffffffffffffffffffffffffffffffffffff1673ffffffffffffffffffffffffffffffffffffffff167f8be0079c531659141344cd1fd0a4f28419497f9722a3daafe3b4186f6b6457e060405160405180910390a3806000806101000a81548173ffffffffffffffffffffffffffffffffffffffff021916908373ffffffffffffffffffffffffffffffffffffffff16021790555050565b60405161152580610b9e83390190565b828054600181600116156101000203166002900490600052602060002090601f016020900481019282601f10610b3957805160ff1916838001178555610b67565b82800160010185558215610b67579182015b82811115610b66578251825591602001919060010190610b4b565b5b509050610b749190610b78565b5090565b610b9a91905b80821115610b96576000816000905550600101610b7e565b5090565b90560060806040523480156200001157600080fd5b506040516200152538038062001525833981018060405281019080805190602001909291908051820192919060200180519060200190929190805190602001909291908051906020019092919050505082806000806101000a81548173ffffffffffffffffffffffffffffffffffffffff021916908373ffffffffffffffffffffffffffffffffffffffff160217905550506000600a60006101000a81548160ff02191690836003811115620000c357fe5b0217905550846008819055508360099080519060200190620000e792919062000177565b50826000806101000a81548173ffffffffffffffffffffffffffffffffffffffff021916908373ffffffffffffffffffffffffffffffffffffffff16021790555081600160006101000a81548173ffffffffffffffffffffffffffffffffffffffff021916908373ffffffffffffffffffffffffffffffffffffffff160217905550809050505050505062000226565b828054600181600116156101000203166002900490600052602060002090601f016020900481019282601f10620001ba57805160ff1916838001178555620001eb565b82800160010185558215620001eb579182015b82811115620001ea578251825591602001919060010190620001cd565b5b509050620001fa9190620001fe565b5090565b6200022391905b808211156200021f57600081600090555060010162000205565b5090565b90565b6112ef80620002366000396000f300608060405260043610610112576000357c0100000000000000000000000000000000000000000000000000000000900463ffffffff16806301b3e7a8146101175780630df91ae4146101835780631ec6b60a146101ae57806320bc3ce3146101c557806323acc9e5146101f05780632f72ef341461021b5780634a15e2731461028757806355a373d6146102b2578063723e38021461030957806380022eb2146103345780638da5cb5b146103615780639b1d605c146103b8578063bceed73014610425578063c3403ddf14610450578063c4813cd514610467578063d391ce7a146104f7578063d72157701461054e578063e038084b146105bb578063f2fde38b14610628578063fa0e7a7d1461066b575b600080fd5b34801561012357600080fd5b5061012c6106c2565b6040518080602001828103825283818151815260200191508051906020019060200280838360005b8381101561016f578082015181840152602081019050610154565b505050509050019250505060405180910390f35b34801561018f57600080fd5b50610198610750565b6040518082815260200191505060405180910390f35b3480156101ba57600080fd5b506101c361075a565b005b3480156101d157600080fd5b506101da61081f565b6040518082815260200191505060405180910390f35b3480156101fc57600080fd5b50610205610829565b6040518082815260200191505060405180910390f35b34801561022757600080fd5b5061023061082f565b6040518080602001828103825283818151815260200191508051906020019060200280838360005b83811015610273578082015181840152602081019050610258565b505050509050019250505060405180910390f35b34801561029357600080fd5b5061029c6108bd565b6040518082815260200191505060405180910390f35b3480156102be57600080fd5b506102c76108c3565b604051808273ffffffffffffffffffffffffffffffffffffffff1673ffffffffffffffffffffffffffffffffffffffff16815260200191505060405180910390f35b34801561031557600080fd5b5061031e6108e9565b6040518082815260200191505060405180910390f35b34801561034057600080fd5b5061035f60048036038101908080359060200190929190505050610907565b005b34801561036d57600080fd5b50610376610d29565b604051808273ffffffffffffffffffffffffffffffffffffffff1673ffffffffffffffffffffffffffffffffffffffff16815260200191505060405180910390f35b3480156103c457600080fd5b506103e360048036038101908080359060200190929190505050610d4e565b604051808273ffffffffffffffffffffffffffffffffffffffff1673ffffffffffffffffffffffffffffffffffffffff16815260200191505060405180910390f35b34801561043157600080fd5b5061043a610d8c565b6040518082815260200191505060405180910390f35b34801561045c57600080fd5b50610465610d92565b005b34801561047357600080fd5b5061047c610e47565b6040518080602001828103825283818151815260200191508051906020019080838360005b838110156104bc5780820151818401526020810190506104a1565b50505050905090810190601f1680156104e95780820380516001836020036101000a031916815260200191505b509250505060405180910390f35b34801561050357600080fd5b5061050c610ee5565b604051808273ffffffffffffffffffffffffffffffffffffffff1673ffffffffffffffffffffffffffffffffffffffff16815260200191505060405180910390f35b34801561055a57600080fd5b5061057960048036038101908080359060200190929190505050610f0b565b604051808273ffffffffffffffffffffffffffffffffffffffff1673ffffffffffffffffffffffffffffffffffffffff16815260200191505060405180910390f35b3480156105c757600080fd5b506105e660048036038101908080359060200190929190505050610f49565b604051808273ffffffffffffffffffffffffffffffffffffffff1673ffffffffffffffffffffffffffffffffffffffff16815260200191505060405180910390f35b34801561063457600080fd5b50610669600480360381019080803573ffffffffffffffffffffffffffffffffffffffff169060200190929190505050610f87565b005b34801561067757600080fd5b506106ac600480360381019080803573ffffffffffffffffffffffffffffffffffffffff1690602001909291905050506110dc565b6040518082815260200191505060405180910390f35b6060600580548060200260200160405190810160405280929190818152602001828054801561074657602002820191906000526020600020905b8160009054906101000a900473ffffffffffffffffffffffffffffffffffffffff1673ffffffffffffffffffffffffffffffffffffffff16815260200190600101908083116106fc575b5050505050905090565b6000600754905090565b6000809054906101000a900473ffffffffffffffffffffffffffffffffffffffff1673ffffffffffffffffffffffffffffffffffffffff163373ffffffffffffffffffffffffffffffffffffffff161415156107b557600080fd5b600060038111156107c257fe5b600a60009054906101000a900460ff1660038111156107dd57fe5b1415156107e957600080fd5b6002600a60006101000a81548160ff0219169083600381111561080857fe5b021790555060006006819055506000600781905550565b6000600654905090565b60075481565b606060048054806020026020016040519081016040528092919081815260200182805480156108b357602002820191906000526020600020905b8160009054906101000a900473ffffffffffffffffffffffffffffffffffffffff1673ffffffffffffffffffffffffffffffffffffffff1681526020019060010190808311610869575b5050505050905090565b60085481565b600160009054906101000a900473ffffffffffffffffffffffffffffffffffffffff1681565b60006109026006546007546110f490919063ffffffff16565b905090565b61091033611112565b151561091b57600080fd5b6000600260009054906101000a900473ffffffffffffffffffffffffffffffffffffffff1673ffffffffffffffffffffffffffffffffffffffff161415151561096357600080fd5b6000600160009054906101000a900473ffffffffffffffffffffffffffffffffffffffff1673ffffffffffffffffffffffffffffffffffffffff16141515156109ab57600080fd5b60001515600160009054906101000a900473ffffffffffffffffffffffffffffffffffffffff1673ffffffffffffffffffffffffffffffffffffffff16636c169818336040518263ffffffff167c0100000000000000000000000000000000000000000000000000000000028152600401808273ffffffffffffffffffffffffffffffffffffffff1673ffffffffffffffffffffffffffffffffffffffff168152602001915050602060405180830381600087803b158015610a6c57600080fd5b505af1158015610a80573d6000803e3d6000fd5b505050506040513d6020811015610a9657600080fd5b81019080805190602001909291905050501515141515610ab557600080fd5b6001811415610bef5760033390806001815401808255809150509060018203906000526020600020016000909192909190916101000a81548173ffffffffffffffffffffffffffffffffffffffff021916908373ffffffffffffffffffffffffffffffffffffffff1602179055505060043390806001815401808255809150509060018203906000526020600020016000909192909190916101000a81548173ffffffffffffffffffffffffffffffffffffffff021916908373ffffffffffffffffffffffffffffffffffffffff1602179055505080600b60003373ffffffffffffffffffffffffffffffffffffffff1673ffffffffffffffffffffffffffffffffffffffff16815260200190815260200160002081905550610be460016006546110f490919063ffffffff16565b600681905550610d26565b6002811415610d255760033390806001815401808255809150509060018203906000526020600020016000909192909190916101000a81548173ffffffffffffffffffffffffffffffffffffffff021916908373ffffffffffffffffffffffffffffffffffffffff1602179055505060053390806001815401808255809150509060018203906000526020600020016000909192909190916101000a81548173ffffffffffffffffffffffffffffffffffffffff021916908373ffffffffffffffffffffffffffffffffffffffff1602179055505080600b60003373ffffffffffffffffffffffffffffffffffffffff1673ffffffffffffffffffffffffffffffffffffffff16815260200190815260200160002081905550610d1e60016007546110f490919063ffffffff16565b6007819055505b5b50565b6000809054906101000a900473ffffffffffffffffffffffffffffffffffffffff1681565b600481815481101515610d5d57fe5b906000526020600020016000915054906101000a900473ffffffffffffffffffffffffffffffffffffffff1681565b60065481565b6000809054906101000a900473ffffffffffffffffffffffffffffffffffffffff1673ffffffffffffffffffffffffffffffffffffffff163373ffffffffffffffffffffffffffffffffffffffff16141515610ded57600080fd5b60026003811115610dfa57fe5b600a60009054906101000a900460ff166003811115610e1557fe5b141515610e2157600080fd5b6003600a60006101000a81548160ff02191690836003811115610e4057fe5b0217905550565b60098054600181600116156101000203166002900480601f016020809104026020016040519081016040528092919081815260200182805460018160011615610100020316600290048015610edd5780601f10610eb257610100808354040283529160200191610edd565b820191906000526020600020905b815481529060010190602001808311610ec057829003601f168201915b505050505081565b600260009054906101000a900473ffffffffffffffffffffffffffffffffffffffff1681565b600581815481101515610f1a57fe5b906000526020600020016000915054906101000a900473ffffffffffffffffffffffffffffffffffffffff1681565b600381815481101515610f5857fe5b906000526020600020016000915054906101000a900473ffffffffffffffffffffffffffffffffffffffff1681565b6000809054906101000a900473ffffffffffffffffffffffffffffffffffffffff1673ffffffffffffffffffffffffffffffffffffffff163373ffffffffffffffffffffffffffffffffffffffff16141515610fe257600080fd5b600073ffffffffffffffffffffffffffffffffffffffff168173ffffffffffffffffffffffffffffffffffffffff161415151561101e57600080fd5b8073ffffffffffffffffffffffffffffffffffffffff166000809054906101000a900473ffffffffffffffffffffffffffffffffffffffff1673ffffffffffffffffffffffffffffffffffffffff167f8be0079c531659141344cd1fd0a4f28419497f9722a3daafe3b4186f6b6457e060405160405180910390a3806000806101000a81548173ffffffffffffffffffffffffffffffffffffffff021916908373ffffffffffffffffffffffffffffffffffffffff16021790555050565b600b6020528060005260406000206000915090505481565b600080828401905083811015151561110857fe5b8091505092915050565b600080600260009054906101000a900473ffffffffffffffffffffffffffffffffffffffff1673ffffffffffffffffffffffffffffffffffffffff16141515156111c4576040517f08c379a000000000000000000000000000000000000000000000000000000000815260040180806020018281038252601a8152602001807f43726f776473616c6520436f6e7472616374206973206e756c6c00000000000081525060200191505060405180910390fd5b600260009054906101000a900473ffffffffffffffffffffffffffffffffffffffff1673ffffffffffffffffffffffffffffffffffffffff1663d06c1ab9836040518263ffffffff167c0100000000000000000000000000000000000000000000000000000000028152600401808273ffffffffffffffffffffffffffffffffffffffff1673ffffffffffffffffffffffffffffffffffffffff168152602001915050602060405180830381600087803b15801561128157600080fd5b505af1158015611295573d6000803e3d6000fd5b505050506040513d60208110156112ab57600080fd5b810190808051906020019092919050505090509190505600a165627a7a723058204609bd7334fd6addbd0485f5b6a1fc1ccee1248dc98fc0d13fb39a482fcdc0a80029a165627a7a723058209ae1262cf1d25a81e8939a41054bd46314d8bca5504c39f6ebbbf40016cb408d0029",
  "source": "pragma solidity 0.4.24;\nimport \"./SafeMath.sol\";\nimport \"./Ownable.sol\";\nimport \"./VotingContract.sol\";\n\ncontract VotingFactoryContract is Ownable{\n    \n    mapping(uint256 => address) VotingContractIdIdVsVotingContract;\n    mapping(uint256 => string) VotingContractIdIdVsVotingAgenda;\n    mapping(uint256 => bool) VotingContractIDs;\n    address public tokenContract;  \n    address public CrowdsaleContract;\n    \n    constructor() Ownable(msg.sender) public {}\n    \n    function setTokenAddress(address _tokenAddress) public onlyOwner {\n        tokenContract = _tokenAddress;\n    }\n    \n    function setCrowdsaleAddress(address _CrowdsaleContract) public onlyOwner {\n        CrowdsaleContract = _CrowdsaleContract;\n    }\n\n    \n    function createVotingContract(uint256 _VotingContractId,string _agendaOfVoting) public onlyOwner returns (address){\n\n      require(VotingContractIDs[_VotingContractId]==false);\n      \n      address _VotingContract = new  VotingContract(_VotingContractId,_agendaOfVoting,msg.sender,tokenContract,CrowdsaleContract);  \n      \n      VotingContractIdIdVsVotingContract[_VotingContractId] = _VotingContract;\n      VotingContractIdIdVsVotingAgenda[_VotingContractId] = _agendaOfVoting;\n      VotingContractIDs[_VotingContractId]=true;\n      return _VotingContract;         \n    }\n    \n    function VotingContractAddressById(uint256 _VotingContractId) public view returns(address){\n         return VotingContractIdIdVsVotingContract[_VotingContractId];\n    }\n    \n    function VotingAgendaById(uint256 _VotingContractId) public view returns(string){\n         return VotingContractIdIdVsVotingAgenda[_VotingContractId];\n    }\n    \n\n\n    \n}",
  "sourcePath": "/home/abhi_21094/Projects/QuillSto/contracts/VotingFactoryContract.sol",
  "compiler": {
    "name": "solc",
    "version": "0.4.24+commit.e67f0147.Emscripten.clang"
  },
  "schemaVersion": "2.0.1",
  "updatedAt": "2018-12-10T12:03:12.102Z"
}